:020000040050AA
:5C0000004252434D636667530000000032000000030110000427004FF4B001032008607047000006010401042700010104C05D00000003063732119A812000011C00145000000A52000004500000145000001000000000000000000000FE00009B
:F01400004252434D636667440000000045B8000003030B435957323038323041310016030200000301480004270010B500210C2091F5E3FC04460021072091F5DEFC002C12D0002810D0012101808170074AC0F80320002222600B22A280E180A0602046BDE81040D7F559BF10BD4F0C000006010401042700010BF3DC0100000000000010B5034B9847BDE81040024B184700BF517D5000E572500002D0314642F740B22DE9FF0F284600F027FBBDE8FF0F42F746B2000094F84A201AB194F852202CF731B100F083FB2CF731B10CB4204600F082FB10B10CBC2CF716B20CBCBDE8F0810FB42046294600F0D4FB0FBC15F0040FED
:F014F0000CD00FB42046294600F09CFB01280FBC04D1A07B79F7FCF570F79FB170F704B2E06B40F00060E06313208AF797F170F728B715F0020F81F8440002B42046294600F0BFFB02BC206D70F7F5B1044609B171F77EB00FB400F0CBFB012802D00FBC71F791B00FBC71F706B184F83A0103B4204600F0D6FB03BC71F75EB10EB4214600F0DAFB18B10EBC204670F713B30EBC70F738B34FF0010201F09CFE62F782B1BDE8F04F00F0DABB2046BDE8F04100F05FBC000010F4805F01D0B7F702B670BD40B104F15C00B2F78EF108B9D4F87C01B7F773B6B7F776B600F0FCBC02A800F0F9FC18B101461722A3F71AB1A3F720B1CC
:F015E0000FB4304649463A46234600F071FD01280FBC03D1BCF70AF198F70AB3BDE8F08702B02046BDE8104099F7D4B0BDE8104000F038BEBDE8104000F0C0BEC0F8BC1100F0C6FE3EF7CAB7BDE8F04F00F024BF00290DBF04F58C7306AB05F1680004F168000C4A04F128010BE0002915BF06AB04F58C7305F1680004F1680004F128020449B9F70EF494F8A70002A900F090FFADF723B01C0F20000CD000290DBF04F58C7306AB05F1680004F168000C4A04F128010BE0002915BF06AB04F58C7305F1680004F1680004F128020549B9F7E9F394F8A70002A900F06BFFACF755B700001C0F2000BDE8704001F08BB8BDE8F05F36
:F016D0000FF508BE0346032D9FBF94F801C0BCF1030FA478032C01D8A4F777B1A4F79CB13088172D08D1002110F797F000212046BDE87040A2F7DDB62946BDE8704010F78CB001D0A3F7EEB3A3F765B40A20A4F80B0010BD08D00FB4504601F0D7FA122805D00FBC2DF786B6B0782DF77FB60FBC2DF7BFB615F726B60FF57EFF18B197F8CB1090F74FB190F753B100000FB401F05BFD0FBC29F7FCB0408810F4006F1CBF0D20704710F4807F73F745B510F4006F1CBF0D20704710F4807F73F711B5034873F712F301F07AFD73F7F9B30C680F0001D1034810B12068B3F786B2B3F799B2115D2000B0F7F3B28142DDE901C428BF8E
:F017C000062801D3AAF7F5B5AAF709B69DF759B1E06E002808BF10BD2046BDE8104002F03FB9BDE8704002F067B9BDE8104002F081B90000204602F0AFF970BD002808BF10BD204602F0FAF9B5F7D1B2A06A79F771F0A062204602F013FAB5F7EDB202F024BA0000002846F06B8456F76BB756F772B700000D68284602F034FA0546DFF8089041F7B6B0000054752000204673F7E6F202F033FA1BF72BF716F7FAB6000002F032FABDE8704012F7B6B602F088FA10BD0000BDE8F04002F094BCBDE8F04102F099BD08BFBDE8F08717F7ECB36365A364E3640FB4A07B79F720F4A0650FBC84F8641017F775B218F724B702F0A4FD51
:F018B000A4F80C8017F7ECB502F0D6BEE67102F01DFF70BDBDE8F84003F05CB80198B0F8D01011F4804F06D16DF792F440B10199204603F040F90199D1F8E4001DF784B41DF78BB403B40848016821F40071016040F6DC30C0F22000016821F00701891D016003BCFEF62CB4488133004FF21353C0F207036168994203D0E569D61B7DF78DB57DF783B500009360D36013610FB403F060FA10B90FBCA9F7E1B40FBCBDE8F08F1A2C06D1D1F8003243F6F012134090431843C1F80002A9F75EB77DF7A5F10320BDE8F081000048F23810C0F23300006804F7B5B5000003F096FAB0F788B5BDE8FC4103F0CABA6C6116F7EEB1000068
:F019A000016000B503F054FB00BD000007D346F20C61C0F220010B88D11A00F753B700F753B700000BF79CF648F2DC20C0F23300016841F0010101600BF798B6411C00D10025284408F73AF501F7C7B4012801D901F764B46846494603F048FB002802D0062501F7BBB401F783B4384603F055FB01F7F7F401F77FB603F056BB0068D0F8D81059B12DE9FF01404603F06DFB18B1BDE8FF0130F784B0BDE8FF0130F785B0BDE8FF4703F01ABCBDE8F04103F0EEBC0AD02DE9FF0F314603F025FD06D0BDE8FF0F301D34F7CCB734F7D8B7BDE8FF0F35F70EB0204603F09EFD204667F710B12046BDE8304003F0A6BDBDE8F04103F07C
:F01A9000BEBD00003046BDE8F04103F08FBE807E00F0EF0008B10B2038BD04F707B3000003B40C98C188022905D103BC0498002804D0CAF711B103BCCAF70EB1C9F7B7B703F0BBFF0D4629F738B4000018B1A5622663D1F7DDB42820F8BD000004F054FE03460E460DF706B4104901EB40108189491C818170470D4A4AF6444092F8761009B101290AD192F8791041B1012909D0022903D0032901D14BF6803070474FF47A5070474FF4FA407047000020E2200003490248C1F8A00070470000B9D90908A045200070B50546A0F763F3002438B9164890F83B00C00702D1B0F7F1F308B12C6010E0124EB460124C206840F4807086
:F01B800020607CF79FF52860206820F480702060AFF23F00B060012070BDAFF2470008498860704710B57CF71DF307490870002010BDAFF20F0002490860704740102000087D2000DC0B2000AC06210017481849008A08607047C18840F67B438A1F9A4220D20389B3F5FA7F1CD242890A2A19D3B2F5486F16D85B1C4B43B3EB820F11DAC2787AB14B1E082B00DD08239A4209DC82888A4206D8407CC0F30400052801D3102801D90020704701207047E01420000483310070B50646424805680021284661F7A2F2044605F00300012813D034B196F8E000800702D5042C18D3241FE84380070AD0306D012161F7D5F5A0420ED341
:F01C7000A80706D009E044B1EAE7FB2C07D834B1F6E7304690F745F708B1012070BD002070BD89070CD5016DCA6B130108D522F00062CA63006D90F8DE10132089F7CEB57047B0F88C20920711D149070FD5B0F8A41081F00401A0F8A4101F484907016802D541F0041101E021F004110160704710B5044690F88100012801D002280ED1D4F8A810E06979F790F10146B4F8A20028B1884203D879F789F3012010BD002010BD90F84E11C90705D0006D012190F8DE006FF79DB3704791F88B20920706D4096DB1F85610814201DC01207047002070470000988B3100688B31002DE9FF5F4FF4461881460D6FD8F8400392469B4650
:F01D6000012700F0010691F82E00012802D0E86B40016AD595F86340B1F7F2F4002864D05146584661F7F9F330B1B1F7DBF418B15846B1F7A0F503E059465046B1F7D4F5C5F87C01022C01D0032C07D120B190F82F1009B1303005E004F00104214600207AF7EEF5254A01681160111D808808602248224948382C397CB1026836B142F480020260086840F4804015E042F040020260086840F040000EE0026836B122F480020260086820F4804005E022F040020260086820F040000860D8F870120091D8F87402019099F80E0002A979F75DF1694602A879F734F108308C2805D379F735F50020AAF7F9F60027E86B20F080607C
:F01E5000E86304B03846BDE8F09F0000B08B31002DE9FC410646407C80467AF78AF30546404684F727F0070045D007F108007AF7A2F1040004D107F10C007AF79CF10446346003203074207BF06004F11400B06070606168074609B1284688472046BBF7ADF4002827D0C068800724D595F8DD003C78012801D1062C1DD0202140469CF788F595F8DD00012815D1052C13D10020CDE90000002295F8DE00134662F7C1F0E86B022140F00400E86395F8DE00BDE8FC4162F79CB0BDE8FC81000070B50646057940887AF735F304002AD00F2D06D0112D0CD03046BDE8704089F771B6E06BC0021ED5A06C40F40070A0640EE02048B0
:F01F40000078C00615D5606C80050CD594F8DE009CF735F5606C20F4007060642046BDE8704089F781B4A06C810502D520F40070A06470BD70B504460E461D461AB194F8DE009CF71CF5002084F88601E06B010302D45EB1010109D420F40020E063172D00D1002529462046A2F78BF2606C20F4005060642046BDE8704089F755B40000E014200010B503460A7800200AB14C7804B91E2002F003021A70497801F00301597010BD2DE9F0410446002590F886012F46022853D10127182A08D0162A35D00D2A3BD0112A3BD0072A41D047E001F1140694F8DE009CF7D2F4707850B1032806D0B178032903D0042801D2042905D395
:F020300020252EE0B1780029F3D12AE0B6F8031094F8DE0097F701F640B194F8DE00314670F748F5022084F8860120E0282004F8CF0F0121E07B6FF7FBF118E094F8DE0004F5C0721721A2F716F310E04D7D00E08D7D232D05D123212046A2F71AF206E01A252B4601220021204689F7C9F43846BDE8F08101460020097D132903D0072900D105487047044810387047AFF21B000249C1F88801704718825000A47F200010B51C461F281BD21C4B1B5C8B4217D192F8DD1069B10E2812D0102810D017280ED019280CD01D280AD01E2808D0012010BD28B1012803D0182801D00828F2D10146104697F744F56068002197F7B9F492
:F0212000002010BD70B50546487D0C46122803D195F8DE009CF743F421462846BDE8704098F774B090F8DE009CF739B4288250002DE9F04740484149407E0978884202D90020BDE8F0873E4DE86BC00701D00120F7E77CF79EF581463B48DFF8E88000240278D8F8000060E000EB84010968E1B3A94259D000EB84000668488F06F5D076012854D1D1F8A80380BB301D4FF720F5D8F800004FF4727A00EB840752463968274852F760F2307C162810D12748D6F8E430A0F1E402EC3602F1EC0102F58272B34202D1C0E9001201E0C0E900213868D0F8A80310B91E48C5F8AC034646386851467DF7D1F6306801E01DE01FE000EB95
:F022100084000560C5F8F051006800F5D070417D032906D0012906D0022909D0042909D00DE0104900E01049001D4FF7D0F406E00E49F9E70E49F7E7641C94429CDB48467CF733F58BE70000A0142000905C2000F816200094142000921420007C192000A01A2000000E2000F00D2000F80D2000080E200010B57AF77CF1044690F8DD0010B1012817D023E0E06B000794F8C80006D4032812D0122810D005280ED017E00F280BD0022809D0042807D0132805D0062803D00CE0606C400709D53D221146204698F749F0002084F8C800012010BD002010BD70B5044674F735F4224E00204FF4461530742148016811B9D5F8941085
:F02300000160BE20C5F89400002042F7D5F21C48016941F001010161016841F001010160A079C0B1607C012800D0002057F7BAF4B27914494FF48200BAB1134A1268C0F850211248006808600B48BBF76BF0BDE8704074F7F6B1227961792068BBF7F3F40B48808AC5F80403E2E70A4A1268C0F850210948E6E7000024F120003875200060016500E0044100CCF72000D4F72000E0142000D0F72000D8F7200010B5B0F79DF00249086020F0004010BD5029200070B523480078042837D3224A4FF4CA0011788B080364446C8B07DB0EFF2505FA03F6B44311269E402643466400260664194B1C7844EA0111C0F8181251788A0878
:F023F0000264436C8A07D20E9540AB43022595401D434564066444EA011141F48031C0F81C124FF00111C0F820120121C0F824120A48016841F40051016070BD0949084808603EF7C0B1AFF20B0007490860704756692000AD0621005369200034023200006CDC0294692000CC692000044900200860704703490860704702494860704730502000244B20002DE9FC4790F83970054600F11C06B81CC0B240F0800100243A48A8F7E3F6A87B694678F726F60098DFF8DC8010F0030006D001281BD002281CD003280CD11CE00198A96A884200981BD9022178F716F23060B8F80000706095F83A00DFF8AC9090B199F8021068468D
:F024E00078F7CEF23BE001210098EBE70221009801E00121009878F7FDF13060A86AE6E799F8021099F803000144E8E7781C05F12C01C0B28CF753F08046DDE9001040EA4120194901EB840188671849E0020860B8F14F0F09D208F1020040EAC42048F2801108431149091D08602819641C80F83E7099F80210684678F792F247466946304678F7BBF4012803D14F2F01D2042CCCD385F842402046BDE8FC8704016000E00D2000721B200000E0310000E931000A46C11F082905D8C0F11000C1B210467DF702B5704770B5044673F753F5002854D094F85700FA4D410701D500070DD4204601F0E1FD686824234221007BC0F34A
:F025D00000022046BDE8704070F741B46868E169007BC1F3C031C0F30000884208D0204614F735F494F8A30040F0080084F8A300696810220D3104F5907052F73CF0E069010403D42046ADF74EF405E040F3C031491C2046ACF7AAF1204673F719F4002813D06868E169007BC1F3C031C0F3000088420AD0B4F8E600C0F3C301022904D020F078002030A4F8E60070BD2046BDE8704070F73DB410B5044673F7F9F30100CB4802D04168497B59B194F8A310C90602D44168487B50B12046BDE81040ADF734B4E06940F3C032521C252303E0087B2423C0F300022046BDE810400F2170F7D6B310B5044673F7CDF488B194F85710A5
:F026C00048070DD408070BD4B548242397214068007BC0F300022046BDE8104070F7BFB32046BDE81040AEF731B17FB5044690F8570000250E46C00601D5AA4801E004F168006B4604F1280204F17801B8F78CF10098C4F88800B04231D194F85700C00608D40198C4F88C000298C4F890000398C4F8940014F8A30F40F002002070A078A4F1A3040D2805D194F83B0110B120460FF74AF4E069810030D594F8A41004293ED0C0F3C40008284FF00001204602D2B1F7A4F722E00FF7A6F201251EE02046ACF74DF7002084F83B01E069C0F3C401082901D3410004D505212046B1F78EF709E081490968C90701D0800003D505218A
:F027B00020460FF788F2052084F8A200E069784920F00050E0614968C0F3C030097BC1F30001484080F0010229462046ACF789F17FBD70B5446800250126204673F738F3B0B394F8320178B194F83B0110B120460FF7F2F3E069C0F3C40108291CD200212046B1F753F71EE0E069C0F3C401082905D22046BDE870400521B1F747B7800003D5052120460FF746F22046BDE8704005221146ABF7DCB4800004D5002120460FF739F2012594F8A40010B1012601E009E0002601212046ACF71AF200212046ACF716F216E094F83B0198B120460FF7B3F3E069C0F3C401082904D200212046B1F714F706E0800004D5002120460FF7AF
:F028A00012F20125E06920F00050E061A18CC00021F00401A1840DD5204673F7CBF320B102212046ACF7A8F004E094F8A21020460FF797F2E069400013D50122002120460FF7A7F294F8A300C0060AD54EB194F85700002140F0200084F857002046ACF7E1F4002084F8A400204673F7A9F2A8B1204673F79FF350B194F85700400706D5B4F8E60020F078001030A4F8E600324629462046BDE87040ACF7DBB00122F7E7F0B51749044689B0164E4A6800206B4604F1680500F10D01575C94F85710C90601D5314600E02946095C4F401F54401C1028EFD304AA04F128011846B8F760F0002004AA04EB000191F87830115C83EAB5
:F0299000010394F85710C90608D5314607E00000E4C82000A8102000C41B200029460B54401C1028E6D31848B0F8FE00400709D5B4F8E600000503D4204673F749F208B1162000E0102084F83B01204673F740F200280ED0204673F735F3002809D094F85700400705D534F8E60F20F078001030208009B0F0BD054949680A7B5108C2F30002292370F723B240102000E4C8200010B504467448006873F71AF201007348B0F8FE004FEA007007D0002801DA704900E070494831202205E0002801DA6C4900E06C49182220467BF736F208B1002010BD012010BD70B598B0044600F1180506210CA865F7A2F1062221460CA865F728
:F02A8000BCF1401C44D1604906220E46204665F7B4F1401C3CD1062229460CA865F7ADF1401C35D106223146284665F7A6F1401C2ED10622294612A865F721F20622214606A865F71CF206A906232246084665F70DF2224606231146684665F719F2694606232246084665F713F247496A4606232439104665F715F26A46062306A9104665F706F20622694612A865F776F110B1002018B070BD0120FBE770B5A0B0044600F12005082110A865F748F10822214610A865F762F1401C44D1344908220E46204665F75AF1401C3CD10822294610A865F753F1401C35D108223146284665F74CF1401C2ED10822294618A865F7C7F14F
:F02B70000822214608A865F7C2F108A908232246084665F7B3F1224608231146684665F7BFF1694608232246084665F7B9F11B496A4608232439104665F7BBF16A46082308A9104665F7ACF10822694618A865F71CF110B1002020B070BD0120FBE710B5094C201DFFF724FF08B1002010BD206873F73EF1002804F1040002D0BDE8104093E7BDE8104036E710D920004010200068710F00E0D9200088D720006CD8200038B51446921D69466FF07E00B0F7A8F1E21D69467E20B0F7A3F138BD30B500F10904002589B0B0F8090029460EF7F5F5E01CFFF76AFF30B108236A46E11C0848B8F70EF205E0FF222021684698F7E5F3DC
:F02C6000122569462846A1F7EFF309B030BD0000ACE1200010B5941D24F730F3082084F82900A07920F0E000A071A07A20F01800A072802084F8260010BD0D480C214170017003218170C170704770B5144672F77BF2084DA071688BA4F8070072F79FF26072054800886081288BA08170BD00009E732000240F2000442A2100401D017A03290BD1FF4AD0F816109078B1F57A5F20F0C00004D0B1F5FA5F02D012207047403090700020704738B500F1090400200090608A617CA0F57F42FF3A00D13F2080F47070012901D0022902D110F47E7F11D06A46002120462BF7A1F30546208829460EF772F5002D04D1E74A214600985D
:F02D50009BF729F538BD1225F1E738B500F1090400200090B4F83B0094F83D10A0F57F42FF3A00D13F2080F47070012901D0022902D110F47E7F10D0694620462CF7CEF20546208829460EF748F5002D04D1D34A214600989BF7FFF438BD1225F1E770B5047B002500F10906012C03D8012072F7B3F500B91225012C03D173F75DF100B10C25C74890F8FF10A14201D10C2501E080F8FF40308829460EF71FF5002D04D12046BDE87040ACF7CDB170BD2DE9F14F84B0049C04980934C01CB4F834B094F8389072F745F2056A70B1A9F10301FC292BD3BBF1040F28D3B5F8D010490405D4E18E490702D009E002201FE02268616848
:F02E40008A4203D00AB1C1B900E0B1B1217A627B914212D1618A81B1A18A71B1D4F81620D4F81A108A4203D00AB131B900E021B1A17F94F82320914202D012208246C1E1E18EA1F57F42FF3A01D13F21E186E18E6A4681F4707300F13401E386184620F7A7F300F0FF0A0098E08620462CF7FBF101468F4A80B20290A2F86000B5F8D02060F30B02A5F8D0208DB38807410FD220C84095F8C31000F0030088427CD194F83000FF2803D1824890F83800F8B9A07F022805D1217A022902D17E493C220A70784EB178C1F3C2010191217A052904D1218D102901D104280AD00021084652F775F5D4F8160030B1D4F8160007E053E053
:F02F300000210120F3E7D4F81A00C4F81600218D4FF4FA28C908B0FBF1F0B0F5FA5F06D0B0F57A5F0FD0B0F57A6F18D03CE0B0784FF47A3120F0C000B070307820F038000830307016E0B078414620F0C0004030B070307820F03800103030700AE0B0784FF4FA3120F0C0008030B070307820F03800307094F830705348012F18D00022042F19D0062F21D00123082F29D00A2F33D0032F3FD0052F42D0072F4AD0092F54D00B2F5CD0AFB3122005B0BDE8F08FB27822F0380263E0B178337821F0380143F00203337041F0040106E03378B17823F00203337021F03C01B170F27002707EE0B77896F800C027F038074CF0020C63
:F030200086F800C047F0040708E096F800C0B7782CF0020C86F800C027F03C07B770F270037039E030E0B27822F0380218322FE0B17821F03807317841F00201317047F0040108E0B17821F03807317821F00201317027F00401B170F370C8E7B27822F03807327842F00202327047F0040208E0B27822F03807327822F00202327027F00402B270F370CBE7B27822F038020832B270007801282BD1104AF07841451378977860F341033078C0F3400060F3820360F34517977060F3C7131370B2F801000EE000003E5D2000D7B00100C7B1010040102000906A2000347220002072200020F4F86001D1403000E0C030A2F8010060
:F03110003D48007878BBB078C0F3C2010198814229D00027C7EBC70000EB4001374800EB0116B6F8D000C0041AD5D6F8E400C0F30420072814D37BF7B4F58046304658F748F02F48B0F86010B6F8D00061F30B00A6F8D000304657F772F640467BF7A5F57F1C032FD6D3B5F8D000029961F30B002449A5F8D000D1F84C1119B104988847C0B222E74004206828D4401C02D14FF4FA5020606068401C02D14FF4FA506060D5F8E4004FF4FA5120F4000040F00040C5F8E4002068884205D06068884202D0E08E400703D0E08EC5F8D80012E000211224084652F712F42046F6E6C5F804016068C5F80801A5F80CB185F81091E08E5C
:F0320000A5F80E015046E8E6425D2000C8D1200040102000A47F20002DE9F0410446164E164D174F24E0174852F746F600BB1349144852F78BF5288806EB8000006818B9114910207CF729F02888FF280CD20B2806D027F729F3288806EB8000016805E00648FEF753FE03E0396809B103488847641ED8D2BDE8F081FC690F00E4C82000B00621008CC82000040000810A49072081F84A010948027801209040401E4FF6C0721040A1F86400002081F8FF0004490860888070470000401020002D5C2000981420002DE9F74FDFF8F0810446DFF8F0A1D8F800009346A04225D1794F3E6820E0351FA5421CD0284676F7D8F518B9BA
:F032F000284676F7CDF5A0B1BBF1010F03D1A87CA17C884207D2A87CA17C884209D99AF80010884205D3019800B105600120BDE8FE8F3668BE42DCD10026D8F800004FF0FF35B1464746F8B1C17C03291CD176F7A5F5032808D03868A17C807C884213D39AF8001088420FD33F68384675F770F2A84205D3A84207D1B97CB27C914203D905463E464FF001095348D0F800802CE098F80F00A8F10407032824D1387D0D2821D1384676F77AF503280ED0BBF1010F03D1B87CA17C884207D2B87CA17C884211D99AF8001088420DD3384675F740F2A84204D307D1B97CB27C914203D905463E464FF00109D8F800803B498845CFD13A
:F033E0003A48076818E0B97BA27C381F914212D9334A127891420ED3804673F7EBF5A84205D308D198F81210B27C914203D9054646464FF000093F682C488742E3D12C484FF00008076824E0381F08F10108BBF1010F03D1817CA27C914207D2817CA27C914212D91E4A127891420ED3824673F7C1F5A84205D308D19AF81210B27C914203D9054656464FF00009B8F1030F03D23F6817488742D7D1681C03D0182D05D3681E0DE04FF6FF70002609E0B9F1000F3146204602D075F795F201E075F7DFF1A18921B1814201D2401A00E00020019900293FF434AF0E6031E70000100E2000D00D2000000E2000080E2000F80D200029
:F034D000F00D20002DE9F05F066F824606F15C0896F8634096F862902146002079F758F207463848006810F0010B06D036480268DAF8401042EA01410160D6F87C518DB395F82E00022806D1B0F714F118B105F12808012001E009F001008146022C08D0032C06D0F06B40010FD595F82F0048B90BE095F82F0010B1F06B400102D504F0010402E005F1300701241F49386848310860091DB8880860DAF8400034B140F0400405E0FFE709F00109E8E720F04004B8F7E3F080070ED41348D8F800100C3001601149B8F8040010310860B9F1010F14D024F08004BBF1000F0BD00A481C300168E2B241EA02210160074920460C68FE
:F035C00060F31F4404480460BDE8F09F44F08004E9E7000040833100688B310070B50E4C2068A9F750F1002502280CD02068A9F74AF1032807D02068456129F7EAF3206880F8215070BD2168887B0831B0F79CF121684861F1E70000282920002DE9F05F8946D249D54C1D460F78D249B4F800C0D34C0B88D0492688DFF834A30C884FF001080D2825D006DC02282ED0032840D0062804D11AE010283BD0112825D0B9F1000F74D0B90673D599F8501109F5A87A4FF00C0B062960D2DFF8088358F82170F7B3012857D00F2855D059E0A3F7B6F39CE0B8064CD5BC48D48016818088A04200D204465481968190E0B90640D51128D0
:F036B0000DD00020BAF82C301380BAF82E3051465380A0B3088E9080488ED0807EE00120F0E7B9062CD510281BD0002716889E4215D3A64213D85188614510D3A748008881420CD87FB19188994208D3A14200E01BE004D8D188614501D3814203D912205BE00127E2E7AAF82C6051885046AAF82E1027B191880186D188AAF832104DE0C5F800804AE0012902D0C5F800B045E0092806D0042808D0052806D037E04DE03FE000218AF8001038E0B2F8157002F114019F4200D81F46A1F80170A74200D32746A1F80170B1F80370674500D86746A1F80370B74200D33746A1F80370B1F805709F4200D93B46A1F80530A34200D2C3
:F037A0001C46A1F80540B1F80730634500D99C46A1F807C0B44500D26646A1F807609AF8001058F821304946984728600120BDE8F09F042802D0052802D005E0142100E01521484696F7DCF11120EEE70220ECE72DE9F05F074666480D460026D0F800A05C48114605F5A87403885C480E2F008876D006DC012F27D0042F72D0082F22D10AE00F2F20D0122F1DD1617889071AD595F8BC10890616D56178C90717D1A189994208D1218A994205D1E189814202D1618A814201D002207DE05FEA0A4002D52846A0F70BF67EE06278D20701D01A2679E00F2F21D00022B1F802C091469C4519D33D4FB7F800B0DC4514D8B1F8048062
:F0389000804510D33D4F3F88B8450CD8B9F1000F0DD0CA889A4206D35A4504D80A89824201D3BA4203D9122655E00122DCE75FEA0A3212D4A28962450FD1E28942450CD1B9F1000F07D0228ACB889A4205D1628A0B899A4201D117263DE0A4F804C08A88E280B9F1000F05D0CA882281098904E025E018E0218D2181618D618195F8BC1089060CD5E08840F64801884200D30846E0806089884200D30846608101E06081E08003200FE002F114010122284692F778F480B91521284692F74EF40BE06078C00708D105202070A86C40F48050A864284687F781F7304631E70000E0142000BAE02000426D2000406D2000466D2000DA
:F0398000446D2000286D2000F15C2000B4062100082920007CB5044650252C266946A3F747F2E06B400701D570253C262046A9F764F268B1E06BC0F34140012801D0022806D194F88501022802D194F8860148B1BDF80610BDF80400491BB0EBE10F00DBC8107CBDBDF80610BDF80400891BB0EBA10FF6DB88107CBD70B5174E04460025306830B1022C01D3122513E0AFF74CF708B10C250EE030680178A1420AD0047014B1B0F775F405E0B0F74EF40B49012081F8A000284670BD70B500240E461546012807D1AFF78CF620B13046B0F744F228600124204670BD886D2000C41A20007CB504463848006900051AD53748007843
:F03A7000B8B177F725F3364D696877F7C0F200280FDDB4F870004101686876F733F76860304869460068009000200190A07B77F792F077F70DF3E16D77F7A9F2002802DD204676F72FF17CBD10B50446FF2107208DF73AF69EF7DAF6A06D68B104F1580076F722F41C480069000505D51B48007810B11B4876F718F42046BDE8104080217CF75AB210B5044676F7CAF1002822D04FF4461100208865E06E00281BD004F1580076F704F4E16EE06D76F7EBF6E0650948006900050ED50848007800280AD0074876F7F4F3B4F87000054C8101606876F7D8F6606010BD240F2000D0062100C42A2100B806210010B50446807B77F713
:F03B6000CFF22449A0620020086010BD70B5214E0446316829B1112903D2E06977F74DF2E06194F85C00012823D0AEF7EAF41A49B0FBF1F04FF47A71484340F27121B0FBF1F5608C284420F00101E06976F764F7E061608C411921F00101081A30600220E074012084F825002046BDE8704076F78EB4AEF7C6F40321B0FBF1F201FB12004500608C4119E06976F746F7E0613560E5E70000BC06210075D145177CB504462448006900051AD523480078002816D077F756F2214D696877F7F1F100280EDD208F4101686876F765F668601C4869460068009000200190A07B76F7C4F77CBD10B504461348006900050DD51248007806
:F03C5000002809D0114876F762F3208F0F4C8101606876F747F6606010BD10B5416A00290FD0243076F750F306480069000508D505480078002804D0BDE81040034876F743B310BD240F2000D0062100D02A2100C0062100410305D403490968090C01D140F4802070470000DC8931000149002008707047D0062100274901200870704726488068C0F3400090710020D071704770B5144600F1090572F7A3F228B12048407E10B10C20607170BDE9781B480129816805D021F0020100241A4D81600EE041F00201F8E7601C71F771F028B1C169CA0202D521F08071C161641CE4B228788442F0D370BD30B50930B0F803504379D4
:F03D4000C488018903B129B90B488078C0F3C200012806D0094805808371C4700171847030BD1220507130BDD0062100240F2000A0142000100F20003E5D20005C10200010B504460A2255210C200DF71EF5014608302268C0F802206268C0F8062022894281827822F001028270427922F001024271C27A22F04002C272BDE8104008460DF7D5B32DE9F04F87B0044611F73DF60746D4F8E400D349C0F3814606EB860001EBC0010691D0494FF0010801EBC0010191CE4904F15C0901EBC0010291CC49251D01EBC0000390204630F7C1F1D4F8E400DFF820B3010207D5BBF86020B4F8D01062F30B01A4F8D010B4F8D010C1F3F5
:F03E30000B0A6FEA0A01890704D05FEA8A6101D54FF00208BC498978C1F3C20161F31A60C4F8E400D4F8E00018B1E0650020C4F8E000F0B217F781F33046B1F7E9F1D9F82C00314600F001000490A86A00F001000590504657F76AF4D4F8E40010F0E06F0CD19BF838000A2802D0304682F7ADF6D4F8E40040F40010C4F8E400A348A4490068086094F8C300032808D151F7DAF528B1304651F77EF1304651F735F051F7D1F530B1012F01D0022F02D19949F0200870002332461946069848F713F4012F05D0022F03D0062F01D0072F04D151F7B9F508B1002303E0D4F8E400C0F3407332460121019848F7FDF3304651F764F0C1
:F03F200004F1D0046069C0F30261069848F703F56069C0F30261019848F7FDF460693246C0F340730021029857F764F22088C0F30B01029857F771F2002332460121039857F758F22088C0F30B01039857F765F2E079A4F1D00470F742F79BF83810022903D090F8330180072CD5B4F8BA70002107FB08F7204630F7DFF0034600972A68022128464FF77AF4DDE9021228464FF7DFF4029857F743F20146284650F702F30121204630F7C8F0034600974846D9F8002001214FF762F44846019A06994FF7C7F46BE0B4F8BA70002107FB08F7204630F7B2F0034600972A68022128464FF74DF494F8C300032809D151F733F530B156
:F0401000304650F72FF502462846029902E0DDE9012128464FF7A4F4029857F708F20146284650F7C7F2444890F8D9110120B040014205D1B4F8BA203146029856F780F3059838B1286B8DF8000001226946284650F732F2B4F8B870012107FB08F7204630F772F0034600974846D9F8002001214FF70CF494F8C300032808D151F7F2F428B1304650F7F1F40146039A01E0039A069948464FF764F4049838B1286B8DF800000122694648464FF7E6F72348006818B351F7D7F400B3DFF88480002758F8260048B995F853001A2110FB01F03FF720F748F8260080B155F8100F43460AE053F8261007EB870202EBC70201EB42018B
:F0410000C16000687F1CA842F2D1204656F7C6F5B4F8D210304648F7BEF407B00120BDE8F08F0000C0D0200038D12000B8ED200030EE2000401020003E5D2000A8732000A4732000906A200060F22000187620008CF4200002460020117849087F2907D00F290BD042290CD0042900D16448704751781729FBD16248103870476048183870475F48083870475E494B681A7B51087F2902D1597B41F08001C2F3000224236EF75DB62DE9FC41564F40887968097B4E0870F724F604467868427B46B9218E0F2925D0A1F58073313B21D0042A1FD00C306EF7A6F605003ED094F8F30000070BD5E879C00708D0206836F7FAF294F8A2
:F041F000F30020F0080084F8F300294620466EF7C8F6030008D0232B10D02A2B0ED024E00C30ACF7B5F5DEE73B48016811B12046884740BB29682046884724E0E069000413D5A07B022810D00020ADF8000005208DF80200786801900023304A694620469AF7C5F2BDE8FC8119237F2E03D17868407B40F0800678683146007BC0F3000220466EF7F4F5786802B02146BDE8F0418F23002296F7D7B70E2A02D000220DF7D0B50122FBE770B51A4D04466868407B0E2806D0322804D02046BDE870406FF71AB000216EF774F590B1C07910F0780F0ED06968E269097BC2F3C032C1F300015140C0F3C30281F0010120469AF7E3F286
:F042E0006868417B0E2907D0322908D1817B32222046BDE87040C7E7817B0E22F8E770BD60825000E4C82000A86720006531070070B504460E466EF752F5E1690546C1F3C03101F1020100F80C1F467094F8F700C0070DD0E069C0010AD504F13C0120460DF7EAF494F8F70020F0010084F8F70029462046BDE8704012F70EB570B504466EF72DF5064600F10C0520484168097BC1F3000141F04C0129704168497BE1734068C1892186008A6086E06940F00070E06170F734F768701548008868801548008BA8802046A3F739F531462046BDE8704012F7E1B42DE9F04107460E466EF7FEF4054600F10C0446F04A00207070F787
:F043D00016F7607006482946008860800548008BA0803846BDE8F04112F7C6B4E4C82000442A2100240F20005748C07CC00602D5564901200860704770B5554D0446286890F8A40070F7F3F42968A9B191F8191191B9C06900040FD53DF7A5F260B14D4D2979A14208D84FF719F020B154F716F008B12C7900E0EC78204670BD2DE9F047434C4FF000082168A068814204D084F83D8084F83E80A1603D4A91F81901DFF8F490126892F8112180B33B483C4B3D4D07783A4894F83D601B6800682D68BE4214D26AB9D1F8F070074204D091F890C05FEA0C6C04D443EA050C17EA0C0F05D0761C84F83D6099F8025015E0D1F8F0601B
:F044C00018432843064209D094F83E002A4B401CC0B284F83E001B78984203D384F83D8084F83E8099F8015022B119F80200A84200D90546D1F8E800401C15D0887B76F7FFF52168D1F8E81076F78DF5002805DB21684FF0FF30C1F8E80005E0206890F82B01A84200D90546472D09D11348007830B1206890F8A40013F7F8F200B111252846FFF761FF216888740D48007884F83C00BDE8F087000040102000B09231000C252000D024200003682000C0262000E42C2000CC2420000468200005682000C524200070B5050014D0F5480078002810D0286894F721F104000BD0207A042808D1F048006890F83910284694F7DDF110
:F045B0000520207270BD2DE9F0418EB05FEA00082DD0D8F8000094F708F105467AF771F3E54FB978012924D0FB7813B339783A1D5B1E545C491CC9B20622B1FBF2F602FB16113970FB700126BE707AF75EF3D948076887F83940287A70B12146404694F789F20420287201200EB0BDE8F0810020FAE77AF74AF3FAE7382168467AF74BF304EBC40000EB400007EB400080F83D60684694F7C5F1404694F756F1E3E710B57AF72FF3C449C97821B100247AF72DF3204610BD0124F9E770B505467AF721F3BD4A002191707AF720F3002D24D0B8480078002820D0286894F7A7F004001BD0FFF7DDFF012806D0284694F75AF42846CC
:F046A000BDE8704087E7207A052803D0AF480078012809D121680122284697F7F2F10620207201206072A07570BD70B504467AF7F0F2A54DE97806290CD26A782B1D9C54521C0623D2B2B2FBF3F403FB14226A70491CE970BDE870407AF7DFB29A49002008704870C87088704860088170472DE9F843974F05007868867B4BD09048007848B1286894F759F0040043D0022E08D9FF2E42D10EE0E86940F3C032521C192340E006EBC60000EB400004EB400090F8500088B3A67378684FF000084FF00109C17B2174FF2E34D0017C06EBC60000EB400004EB4000002280F853107868D0F8110060607868D0F81110284697F789F11D
:F047900084F80A90CDF80080E869002340F3C032521CA52128466EF714F3A07BFF2821D084F81690BDE8F883FFE7E86940F3C032521C1E2301B02846BDE8F043A5216EF746B37AF76EF2064600222868114616F7BCF330467AF769F284F80A80FF206073A073CFE72846BDE8F84394F7AAB32DE9FC5F5748007800287DD05A4C00262078012804D194F700F294F7D8F12670564C207810B194F7A6F1267000254FF0010A4FF0FF08DFF82C914FF0040B88E0681C009070F7DCF24D49074605EB45000968C0EB851001EB8004207D28B1A07D18B1A675384694F775F3607D98B1A07D18B1A675384694F76DF384F808A0667284F897
:F04880000B8084F80C80A67284F80D8084F80E80E67566750FB3207AF8B1012857D0022802D0072853D119E0D9F8000090F8391001EBC10202EB420200EB420090F83D0030B10121384694F70DF1032020723EE0384694F727F184F808B038E0607CC8B1FF21384694F741F07AF7E3F1019038680022012116F731F301987AF7DEF184F808A0667200E028E084F80B8084F80C80667416E0A07C68B1D9F8000090F83910E07A81420DD0384694F7FCF084F808B0A67406E0E07C20B10121384694F7D2F0E674207D18B1009897F7FBF026756D1C0B4800788542FFF472AFBDE8FC9F00001868200024682000C406210019682000FC
:F0497000E4C820001D6820001E68200020682000100F2000F8B5044681480E461146814B0268814D1A4204D140684EF20302104208D07E480068C00617D56868007C022802D012E01A2239E0606B10F4405F0AD1A06BC20707D1820705D4820403D4420401D4000401D50D2228E03EB994F85700020703D5400701D50E221FE0E069000424D471B120462FF72BF10090A8B1216A09B1814203D1D0F8E400400223D523220CE0206A0028FAD13246694620462FF78BF20246009808B115E01E2268682B21007BB1EB500F3AD0012139E020462FF707F1009078B1216A29B1814203D0232220461AF797F50099D1F8E400C0F3042072
:F04A6000072805D010E0206A00900028D4D0F2E7D1F8B820C1F8C420D1F8BC20C1F8C820D1F8C000C1F8CC00B1F8D000400406D56A68D07CC30701D000F0FE00D074204619F78CF7082100981AF731F4F8BD0021204619F75AF3F8BD30B50C6885B00546C2BBB4F8D010880435D5480402D5B4F80E0101E0D4F8D80010F007002BD0490429D44FF48561ADF8001011218DF80210ADF81200B5F86400ADF8030000208DF81100B4F8D0002146C0F30B00ADF80F004FF4FA50CDF80500CDF80900284619F7E6F020462FF761F01D4A6946284699F73AF615E0FFE7D4F8E400010609D595F8A220FF2A05D0C0F3C053214628460DF721
:F04B50005EF32146284619F7CAF020462FF745F005B0102030BD3EB50C460021009102AB01AA694628304DF7B0F2002807D00198002804D054F8E40F40F4000020603EBD240F200000F80980E4C82000C8272000D7B001002DE9F04176F74DF4064676F790F2174F80463C68BC42256808BFBDE8F081A08A88B156B10121404675F754F722690146104676F726F2002805DD2069414676F720F200280CDCA168002908BFBDE8F08120468847A18A19B1404675F73BF720612C462D68BC42DAD1BDE8F081A80D20000848016841F000710160704706490320086070470549022008707047044935200870704728153200E082330085
:F04C40006C592000026220002DE9F04100252F4C4FF44E11012802D004280CD04BE001F5A071086820F47F4008604D60284940F2145008603FE0274801F53771026842F0080202602448254A0570022010702448827842F0010282707F2202700822C270214A20481060214A108840F4306010802069204A20F0400020611D489060086840F004000860086820F0010008601A481A4E4FF001070760B06800B1804702F02EFA1748077001F01FF8164872680168914301603570206820F400302060BDE8F081AFF2BB00104908607047240F2000A40B2000C41B2000E01B2000D4282000E0142000C9715000A8672000120F2000B5
:F04D300079715000687E2000D86A2000D00621003F1C2000A8752000A4F7200070B52B4D002404EB8400295C41B1284403794288407800F00F010009FFF6ECF2641CE4B2082CEED310F769F601280FD14FF44810816E21F47F4181661D48016841F002010160BDE87040002010F7CDB770BD70B5144606460D46FFF6A2F2002820D03046FFF68BF20121A940884304F00101A940084381B23046FFF68AF20C49002305EB061203EB83000D5C5DB1084445886D0407D54078904204D103EB83000844047170BD5B1CDBB2082BEBD370BDFC0B200000C4320070B501200026174B0402174D566108291FD004DC05290FD0072904D1B9
:F04E200014E0202906D0372901D0002070BD4FF4717101E040F2EC41518070BD0B490C3951601021517040F2045109E05560567040F2245104E055600821517040F2345151809360D46070BD1C803300B08333000E48016821F4804101604FF00001C0F8441170470A480068400401D0002070470120704710B501F72DF320B90548007808B1012010BD002010BD00005C81330058813300C0FC20002DE9F041164800681649174C174D184E884216D01FE0124F308840222B683F1D396844F82010994201D1521EF8D254F82010994209D0401C2960202800D300203080ADF79FF21F28E5D105490020091F0860BDE8F081BDE83C
:F04F1000F041ADF78FB2000004263500FFFF0F20F80C2000DC062100F40C20002DE9FC410746684608F75CF2284EDDE9002430688168C068551A64EB000417F773F2022811D02348016811B3A5FB010304FB0131002205FB02111F4A1F4B12781B7812FB03F2D31720E017F769F264214843A0FB0513002202FB053200FB04240D467AF790F50A21B0FBF1F2002328460BE040F6EC30A5FB001304FB0030002205FB0204642200230846214696F7C0F10B4A0023801841F10001520096F7B8F1316809680844394608F7BBF2BDE8FC81EC582000C40B2000BA0B2000B80B200020A107002DE9F04104460D461CF7D9F1062805D036
:F050000000201B4920B10888860002E00120F8E70E8818480021078817480068C8301CF7EDF001461548006880030CD52068B04209D97A18904206D9421C01D0401A20600120BDE8F0812878401E28700020F8E70B48C16A44F2036221EA0201C1624FF004010160704708490648086070470000800C2000420C2000E0062100A00B20002C81330089192100940C200070B504460D461CF78CF101460948062906D002782368A9188B4204D8002070BD00788200F6E7581A2060012070BD0249087070473D5B2000E406210008B50C480090FF2269464FF4BC7007F7F0F60948016821F40071016007484FF0000181604FF08002F2
:F050F0000260C1604FF003018160FEE7FEE7FEE7488133000090320010B500F0B5FC0446022808D078F74FF55A2804D2204678F735F5022801D2012010BD002010BDA0F13201282903D84E49088001207047002070472DE9F0470446022078F734F5484F8046388850B9022078F70FF50A2801D8462002E0142821D850203880D4F8D800404DDFF8049101264FF00C0AC0B339880A39884503DBB4F8D40000282ED10027C4F8D870206B58B1806948B1EE60226BA18A506E9369002298471EE05A20DCE7D9F80010002091F86B10C91C1BE02269D2F8882002EB80021268A24211D1C0EBC002296F0AEB820008440268002A05D06D
:F051E000EE602069483000219047EF60BDE8F08704E0401CC0B28142E1D8F7E7022078F7DAF439888842F1D3B4F8D4000028EDD0C4F8D860206B38B183692BB1A18A406EBDE8F04701221847D9F80010002091F86B10C91C18E02269D2F8882002EB80021268A2420ED1C0EBC002296F0AEB820008440268002AC9D02069BDE8F047483001211047401CC0B28142E4D8BEE70000E606210068932000345F20002DE9F04FDFF84CB287B004004FF00008DBF80000DFF840A28946154647464646059018D0DAF8A420AAB1A06C0090B4F84C00ADF8040094F84E008DF8060020798DF80700208CADF8080069460E2003959047012886
:F052D00035D004F1700004908DB184B1B9F1000F05D0B9F8140028804FF0010801E0FF2028800020E8802946049878F700F57649C86800281BD1B8F1000F1BD094F88E00022802D0012803D005E0B1F8860000E0488800280BD0E06D002808D1049878F73DF5002803D00146204631F76CF007B0BDE8F08FDBF8000088460969C0EB001000EB400001EB800452E094F88E00022802D0012803D005E0B8F8860001E0B8F80200E8B3D8F88C50C5B12869C06DA8B9B5F8D40090B105F1CC0078F70FF55FEA00090BD0284664F7A7F52946484663F7D4F72869494631F736F029E02068A0B1E06D90B9207904280FD104F1700078F749
:F053C000F5F428B10146204631F725F0012717E0204664F702F60028F4D1DBF80000761C401CCBF800009AF8AD20824207D100E00AE00020CBF80000D8F8104000E0B4349AF8AD00B042A8DC002F98D0059ADBF800005946824292D1401C08609AF8AD2082428CD10020CBF8000088E72DE9F041294E80463169401AB421B0FBF1F0C7B200242AE004EB4405D6F89000691C415CB94220D1415DFF2917D0404664F715F518B10022232140F7C4F396F89420501EA0420ADDD6F89000E91C121B0144521E284402EB42024FF7FEF096F89400401E86F8940001E0641CE4B296F89400A042D0D8BDE8F08170B50C46050006D078F7EA
:F054B000DFF20C34A04201D3012070BD284678F7F9F206A14FF6F77006F7FCF4002070BDE8062100D8C02000689320006C326361705F6C696E6B5F63686B5F706B745F73746172743A2064726F7070696E6720686369207061636B65740000002DE9F84F054690F87C6090F88E004FF0000A022801D185F87CA005F148000024DFF8A4814FF00409DFF8A0B1009033E0D5F8880000EB84010868A0B1EA6A904229D0C4EBC407D8F8702009EB87073A44126802B3C1F800A063F704F3D8F870003844076810E0211D01208840304202D156EA04000FD1C4EBC402D8F8701009EB82000844076837B195F88E30B5F88C2000210098B5
:F055A000B847641CDBF8000090F86B00C01CA042C4DCBDE8F88F10B590F88E10022909D1444906228031483078F77EF4002801D14049C86710BD414B10B5024693F8AE30A1F14000834210DD3A4BC0EB401404EB80105B6903EB8000036833B112B10369934202D1828A8A4200D0002010BD2DE9F0410B46042115468046022A04D0032D04D0012D04D004E0082102E00C2100E006210B2263F776F3020049D00020958202F11603022D0BD00124032D11D0012D36D01C804046BDE8F041002130F75DB723F8020B98F88E10022900D0A8201860F0E723F8020B002118605860022018700420DFF850C0144F0FE0C1EBC106DCF85C
:F0569000705000EB860635442D682DB11D780E1D04FA06F635431D70491C3D6895F86B50ED1C8D42E9DC187800F08E001870C9E723F8020B06480068008910381880C1E7BDE8F08168932000345F2000D8C02000385F20002DE9F047002506468946A84679F7DFF20746F4694AF2050007E06168814202D1E2684A4506D025462468002CF5D1B8F1000F14D02068BDB12860306AA04200D135624FF0FF3106F1240079F7ADF2384679F7C1F22046BDE8F047FCF6C9B43846BDE8F04779F7B7B2F061E6E710B504467AF779F194F82100002806D021461248FFF7BEFF002084F8210010BD10B5040001D0606A18B90D49102079F754
:F05780008CF579F796F2002284F8212079F795F208498C4202D008498C4201D1206900E0606B616ABDE81040084700007CC020000402008100F6200030F62000F0B4DFF84CC000220225DCF8803018E013F81210B0F86860B14210D11146641E08E005EB410703EB41061F44491C3F88378089B28C42F4DCACF8864001E0521C92B2BCF886409442E2D8F0BC1BF758B70C94200070B5000A61F757F4044604202CF79EF0054684B1022104F10D0063F7A5F050B1D0F8880000EB85000068D0F8D800002800D08F2070BD872070BD70B50C46401EC0B2022101EB002615463046FFF7D8FF002806D12A4621463046BDE870404AF7F6
:F058700066B270BD70B5054635F748F20446284622F71BF3002C0ED000280CD0D0F80D10C4F88A10B0F81100A4F88E0014F8990F40F00200207070BD70B505000C4604D1A06810B12068FFF7DDFF214628467DF77BF306461DB9A06808B121F7A1F2304670BD03490860AFF22F004AF70DB300009C6120002DE9F0410D4616461F460846C9F7F7F2040015D0C9F718F62968C0F81110A988A0F81510817909B9A17981718680078002210172BDE8F04100220421C9F7C3B23046BDE8F0412BF794B50B4808218176032101770A214177142181774FF4FA61018442F6E061418400218184AFF26F0140F8241C7047000008602000BE
:F05960002DE9FC410546D0F878010C4620B12846BDE8FC41CBF71FB3A668A878B17888422AD10120C5F878016079CBF7AEF0C5F86C01207B85F8850105F1E4006C22314607464EF770F6D5F86C0100220E21CBF7ABF0A76028464BF74FF101461020CDE90040D5F86C2102B1521DE86E042321F747F2A660BDE8FC8129202070002060706079CBF782F0217902B02246BDE8F041CCF73EB32DE9FC410546B0F876000C4680070BD5192020700020607002B02846BDE8F0410A460F214BF798B0A16805F1E4000E466C2207464EF72DF6A76028464BF712F101460C20CDE90040E86E0C23002221F70DF2A660C4E73EB5054635F7B0
:F05A50005DF104000DD100210091019102AA694628467DF7DFF1012803D1684635F77DF2044620463EBD000010B5044608380179074877F7D1F7E10708D1002805D00169044A914202D190F8220010BD002010BD28842000EFBEADDE10B50F4CD4F8940000280FD1FCF727F804F14404A1883EF787F00B49094888600A494FF0FF3008600220207010BD084901200870AFF237000649C8607047000020E220005D05210008E32000A806210000622000089A20000178FF2903D0082901D80F4A11704178FF2903D0042901D80C4A11708178FF2903D0142901D80A4A1170C178FF2903D0142901D8074A11800079FF2803D01028EF
:F05B400001D805490870704792142000E21B2000846D2000147520009014200070B50446274800788001CEF738F00720FDF402FB244D10B1296801B1884700F05EFD6968002907D0042C01D9012000E00020BDE87040084770BD10B52921E8B18268DAB1194A136843F480731360164BC2685A60164A136823F008031360154B4FF001021A70027812B1012A03D005E0CEF783F001E0CEF742F00146084610BD10B500F7BFF6352010BD10B57DF7F6F408B1002010BD00F0B9FC08B1012010BD022010BD38622000EC06210048813300C41B2000E01B20002DE9F04104468068884616461F4640070BD500212346104A0846CDF7E3
:F05C300013F30F49182079F727F3CDF77EF394B1B8F1000F0FD004F1300538462F7000F7F3F3024633464146204677F7DCF26E600020BDE8F0812920FBE70000688250000403008170B50546012000F0E0F850F7A4F179F716F00446284606F76EF70546204679F712F050F79AF1002000F0CFF8284670BD2DE9F04105460C00164602D0B4F5FA7F02D90020BDE8F081012000F0BEF850F782F178F7F4F70746FF2332462146284606F741F60446384678F7EDF750F775F1002000F0AAF82046E4E7F0B501464FF4A80202EB41240120002147026318625C5D789E78ED43DB78EDB2954205D1B24203D1DB43DBB2934200D00020D2
:F05D2000091DB942ECD3F0BD70B59CB03EF7C2F401280CD1FFF7DBFF2B4D4FF4007460B122462946294878F7BFF000284AD01CB00020BDE870403EF77BB40320FFF7C7FF01283FD13EF777F1012834D13EF75EF1012830D1264622461D4C294620684EF782F429461B4D324628684EF77CF400200121CDE904010A90206808901648039079F78AF64FF47A71B0FBF1F02168134CC1F848012068401C2060684645F717F2286809902068401C2060684645F718F200203EF73DF43EF767F11CB0BDE870403EF762B11CB070BD0006540000025400A8582000B0582000010000808063200010B517481BF734F616480021016041604D
:F05E100010BD10B595F75EF412490120486010481BF72FF6002010BD10B595F774F40D49002048600A481BF724F6002010BD10B501284FF0000108D0AFF2230098F744F2BDE8104002481BF7BBB6AFF24900F5E7DC2A2100F40621002DE9F041044676480F46154601781E4619B90121017000F009FA4EB1042C0DD1384600F024F948B141F6AE70BDE8F0810A2C03D115B9384600F0FEF90020F5E700280DD167480068400609D44FF44810C16F21F00201C167C16F41F00401C1677047AFF223006049086470474FF44810C16F21F00201C167C16F41F00401C16770475A490028086000D1EFE7704770B557484FF0FF346508F2
:F05F0000006820B18047411C01D0002170BD2046294670BD4C494860704750480068002802D04F4901200870704700B587B01C21684678F7C8F64B480590002003903C20ADF8100048480190484802900022694607202BF7C6F407B000BD10B5FFF7E5FFBDE8104039F7EBB038B50C4640490860114620467CF79EF305F782F73D4AAFF225013D4877F798F335490120087000F7B1F268B1FD20ADF8000094F875008DF8020000236A4603214FF626401EF72EF3002038BD2DE9FC41064600F79BF2D0BBCEB33078052836D1B6F803700024384626F742F66946384622F7BCF5DFF89C8024E0274804EB840101EB8411D0F8780695
:F05FF0007E2202EB810108440088B84214D1214877F721F70EE029680622684677F75CF728B929461B4877F7E8F677F74BF5284677F715F70500EED1641CE4B2D8F80000007AA042D5D81448016809B1304688470320BDE8FC8100006408210020043600089A2000740821004C6220003E5E2000876D200011950300D59603002B9703006462200055F10300511A2100345F200038852000389D20005062200030B5A3B004460D468821684678F715F620680090A088ADF8040022486946D0F8DC2513209047040008D08221284679F775F7FF20287023B0204630BD82220DF1060128464EF7D9F2F5E710B5A2B034F717F6040060
:F060E00009D0694604F10E00FFF7D0FF01009DF8000018D103E041F6AA7022B010BDFF2811D0052801D008280DD194F85D0003280BD8074991F87913032906D8054A02EB8000085C08B10020E7E741F6AE70E4E738852000AB82500070B50E46A2B00546144669463046FFF7A1FF01004FF000008DF884002078A278E37830D19DF8761004292CD1052818D295F87112052914D2120707D595F87522120703D500EB80005F4A03E05E4A00EB800019321044085C18B19DF87700984211D93068C5F81D00B088A5F821000A208DF8840021AA1721284640F701F09DF8840022B070BD0020FBE72DE9F0410E468046898806F1080002
:F061D0004C4C0D1892B015F8017B84F8F472708884F8F502781E0E280AD2204633F74FF530B1012F11D0022F0FD00C2F21D037E00A208DF80000D8F80010C4F81D10B8F80400A4F821006A4635E094F8230030B9012F04D1404637F75BF684F84B002A4641462046FFF780FF002828D13249087016E0B4F84C00C00512D54021684678F73AF50023684615F8011BC1545B1C202BF9DB0146202204F59A7077F72DF630B112B031464046BDE8F04133F76DB10B208DF8400010AA172120463FF795F712B0BDE8F081AFF2D5001C49096F086470477CB5184C05460146062204F11D0077F70BF638B904F27124287A2071A8792070FD
:F062C000E879A07010480078002818D010484FF000060660284634F719F504000FD000960622694604F18200019677F7EDF5002805D12868C4F88200A888A4F886007CBDBB8250000C962000650821006893200054622000024901480866704751645000089A20002DE9F04714461F4606460D46FDF6DDF7002868D0724805EB061200EB8200610401680AD541F0080101603A4629463046FDF6DEF724F4804402E021F00801016055EA06004FF44E1706D1D7F8000224F4807400F48070044305EB06104FF44E1202EB80002107804643F6F01911D5012E01D10A2D12D024F00801A0F80012D7F8D802800605D40120A84081B2D4
:F063B0003046FDF67FF74CF20F61012E0BD00CE0B7F868124CF2076001EA090120400843A7F86802E5E70A2D19D0A8F80042012E13D10A2D05D00B2D03D00C2D01D00D2D0BD1600409D5200507D444F400600A2D0FD007EB8501A1F84002BDE8F087B7F8682204EA010002EA09021043A7F86802E7E7B7F86822084002EA09021043A7F86802EAE7334A40F28C4142F820104FF44E1202EB80004FF4C061C0F80012704770B5064600200C4615461070272E00D970BD3046A5F71EF2010002D03046A5F7E1F101205B2C3AD00BDC582C37D003DC64B3572C22D132E0592C30D05A2C1DD12DE04FF44811812C1BD004DC5C2C26D097
:F064A000802C13D10CE0822C05D0832C0ED13046FFF7C0FF0BE0D1F8182222F4005203E0D1F8182222F40042C1F818222870012070BDD1F8182222F48042F5E721463046A5F7E7F10749042041F82600EFE7573CE1B2304600F02AF9E9E7C9B2C0B2A5F799B100000084330038B5DBB2049C0094DDF781F638BD13484FF459110088C2B24A60C0F34702CA60020A8A60400A0861704710B5DDF71CF60A49F020088010BD0849B0F5005F088002D341F6FF720A800A2801D20A200880DDE702480088C0B2704700006C08210000F758B200F75AB000F75EB000F73AB02DE9F84F041EDDE90DB8DDF830900D4616461F4602D04FF00D
:F0659000010001E04FF0000082460BD1204801218160026822F003020260026842F0020202604160FFF6A5F71A4814B1012C09D013E00570A0F80160C0F80370504684F763F00AE014490D7014490E80C0F80770504684F759F084F74FF3012D0BD1B9F1000F12D0002308F00F014FEA18104FF48C42FDF69FF6CDF800B0DDE90A124B46504684F794F0BDE8F88F0123EBE70000B4003200A465200094652000966520003349086033490860704770B52020A5F725F105462120A5F721F10446282D01D1282C2BD0B9F7F4F2CDF7B7F1CDF7BFF1282D07D020212846A5F7E4F020212846A5F71FF1282C07D021212046A5F7DAF031
:F066800021212046A5F715F11F48006808B1B9F71DF31E48002102680846B9F790F218480068002802D0BDE87040C1E770BD70B50C461749150003D1884201D9002070BD024600210846B9F77AF21249D1F81C0200F0FE00284344B1012C02D0022C0AD107E0C0B240F0060005E000F0F900801C01E000F0F900C1F81C02012070BD0000700821002C223500B8642000C4642000689D29000020350038B5049C24B100240094BBF773F138BD0124F9E7BBF741B1BBF7E2B1BBF7EEB1014601208840BBF7FBB0014601208840BBF7B4B00F4A02EB8000026822F47F620260026840F2173303EB01110A430260704710B564290BD8D3
:F0677000B0FBF2F04FF6FF72141A48436421B0FBF1F01C60101A586010BD000000843300034901200860704701480068704700007408210010B500F10904B0F8090000210AF7F5F740F6B83078F770F7D4F803004FF47A71B0FBF1F00022BDE81040282100F7C6B02DE9F04100250C460D606A4E06276A49052B72D006DC012B68D0032B7DD0042B2FD147E0062B6AD0082B52D03F2B28D1A2F58075DD3D03D1CD6E25600D6F65605D4D8035B2F5EC7F1CD0A2F58076C93E03D16E682660AE686660102A16D0B2F5EE7F17D0162A19D0262A1BD0A2F58075D93D03D1CD6C25600D6D6560B2F5ED7F14D08DE0EE6826602D6973E0EB
:F06860006E692660AD696FE04D6B25608D6B6BE0CD6B25600D6C67E04D6C25608D6C63E04D6D25608D6D5FE0012A04D0022A06D00A2A6CD06EE04D6925608D6954E04D6825608D6850E04B2A02D0262A04D061E04D6E25608D6E47E0CD6825600D6943E0282A07D03D2A09D0172A0CD052E041E00DE046E04D6F25608D6F35E0CD6F2560D1F8805030E0CD6D25600D6E2CE0612A19D0622A17D0642A15D0652A13D0662A11D0672A0FD0692A0DD06A2A0BD06B2A09D00D2A07D0112A05D0122A03D02E2A01D02F2A02D12660E780A5806C2A04D06D2A06D0332A09D01CE0CD6925600D6A02E04D6A25608D6A656013E0CD6A256073
:F06950000D6BF9E7092A0AD00A2A08D00B2A06D008E0072A03D0082A01D0092A02D12660E780A5800D6825B12146A8472060BDE8F0812068FBE7000073E20000780821000121517105215170007B90717047000010B590F90D101446007B00F0D5F9A0710020607110BD2DE9FC41144600250646ADF8045000F10902C07A0F46072801D0172810D1507A70B901A900914FF440700623D21C002100F06BFA38B122463946304698F7E4F76571BDE8FC8111206071FAE72DE9F041CC4D00F109070026B5F86400B7F803101446884202D15671BDE8F08100206EF7FEF708B10C200DE0B7F80300B0FA80F1C1F1200290FAA0F1B1FA96
:F06A400081F1491C072902D212206071E7E7A5F8640085F84B2185F84A116671DFE72DE9F04100F109051746808905216EF7E8F40646B5F8030075F71EF6804695F90540ACF7D7F00346AD4800218EB9B8F1000F0ED1B5F80310FD2905D0FE2905D0FF2905D0022013E0032102E0012100E00221A14AD27C120701D5112008E090F90020A24203DB90F90E20A24202DD30207871A5E79B4D2A7842B16A78AF7800EB42021770EF785770002204E001222A70FAE7521CD2B200EB420797F90070A74201DB9A42F5D30AB1521ED2B200EB42006A7090F90030AB7090F801C085F803C0032914D0C578E71AA5EB0C057D4390F9027053
:F06B30000470FB1A95FBF3F3634443708EB186F8A0203068BDE8F041ACF74CB07D4C1846A376ACF74AF27C49096860F30F2161825DE74046BDE8F04176F73CB010B501004FF0000007D0012904D10921022079F7C3F0C0B210BD0821F8E710B50024801E082821D2DFE800F004060B0D0F111315022000E0032078F7D4F7C4B214E00420F9E70520F7E70620F5E70720F3E70820F1E7092078F7DFF74FF448114FF4E0400860092078F7D7F7204610BD10B54FF4481420680220FFF7D0FF00280ED0206845F6FF7108402060206840F4006020600020FFF7B3FF002800D0012010BD70B500F10904407B0026154609280BD0FFF7C2
:F06C2000DDFFA0B12079FFF7B0FF80B1E078FFF79DFF50B90BE00120FFF798FF002805D02079FFF7A2FF002800D06E7170BD1220687170BD70B54FF44816144630683168C0F30330C1F3031508B10B2001E079F7D4F0A0713068B0F5E04F07D0072D15D2DFE805F012100E0C0A08060009200CE002200AE0032008E0042006E0052004E0062002E0072000E00820E0710020607170BD70B500200446244D12E0601C6EF79EF060B1C169CA0209D5C1F3C401022905D30C2903D090F8F510012904D1641CE4B229788C42E9D370BD70B5154600F10904FFF7DEFF0646006891F76EF5E078FDF7E3FC3046FDF756FC0020687170BDD2
:F06D1000F0B40F4C067B0F4D23683EB123F00803236001232B70F0BC99F7CEB043F0080323600023F6E70000401020006C0B200014092100E014200004833100100F2000C41B2000E01B20002DE9F0474FF4C80300229B6D1646C3F3C01730B10FB1504C01E04F4C343C062308E01FB14C4C0522283C02E04A4C04225C3C142394F900C000258C4534DD38B904EB420C9CF900C08C4501DB15462BE004EB430212F9022C8A4202DB5B1EDDB222E0012211E004EB420898F900C08C4501D115460BE006DD98F902C08C4502DA1546012604E0521CD2B29A42EBD35EB104EB450191F9002091F90210114401EBD171491049B203E046
:F06E000004EB450191F900100028884604EB450003D028494078086047E0274990F90000DFF898908979884201DD012100E0002189F801103AF72AF34A4689F800000FB1042000E00820D070DFF864C0907000200CF10C0C26E005EB4001A6B104EB410191F9003091F902703B4403EBD37302EB40075B103B753B71787578714B78C9781944490809E004EB410302EB40071978397539717875787159785CF820301960401CC0B291788142D5D84046BDE8F087740921009C016000D71B2000680B20002DE9F04F102585B00024064691469B46A0460DF10C0A01AB02AA00212846CDF800A041F72CF10746029810B90199FE2948
:F06EF00069D0019941F79DF0B0B10199F0B2884267D10298B0EB162F63D103994FF00108594513D93149182078F7B6F14FF400311220FAF6DEF431E02D49182078F7ACF14FF480311220FAF6D4F4CCE7042304AA0021284840F7C4F6002004AAC300115C99402143401C0C460428F7D304F00300C0F10400084410308246002104F79BF204000BD002464FF4A00653460021304640F7A6F6E8190146821D0BE0002005B0BDE8F08F635CFF2B17D10D1A19F805306354491C8A42F5D84FF40071304641F7A4F350B1534622460021304640F79FF7204603F79FF74046E1E7204603F79AF7DCE70399E81945187DE7000004050081E4
:F06FE000040400810C005000002801D10149087070470000DDF7200070B5554E0024307810B178F783F304465248007838B952485249006808605248524900680860BAF7A7F5514D40B1286830B1C07B10B174F763F608B1686820B195F83900032813D015E028680168896901B18847286883F774F7286873F721F158B12868BAF7C7F5BAF7D8F538B904E074F77AF768B170F707F670F7B9F4307828B178F747F3011B012044F714F1012070BD70F7FAF770F7F7F5012070F78CF6EBE770B52C4E0024307810B178F732F304462A48007838B92E482A49006808602D482A4900680860BAF756F5284D48B1286838B1C07B0128E8
:F070D00002D074F711F608B1686820B195F83900032813D015E028680168C96901B18847286883F754F7286873F7CFF058B12868BAF775F5BAF786F538B904E074F728F768B170F77BF570F767F4307828B178F7F5F2011B022044F7C2F0012070BD70F7A8F770F76BF5012070F73AF6EBE7AFF247110C480160AFF2AD018160704700006D1E200078742000D0F7200050014100D8F72000E0044100100E2000CCF72000D4F720005C80200010B50446042811D36FF7E9F40AF548FC052C01D019F75DF519F72FF519F7ADF51EF77AF6BDE810406FF7CFB210BD00000449034848600549034808607047000029292100E85D200049
:F071C0001C2A21009456200010B504460D484068027B002051087F2913D0112911D194F85700410705D4000703D42046A8F794F706E0C2F300022423112120466BF72FF6012010BDE4C8200010B5064BDB6800211878054B9847BDE810400448044B3221184700BFDC815000A33308004C2A21007B64000037B5002837D10DF106031C4A1C4C062140F20120A047BDF8063013B3194DA847A0F50003B3F5000F0446F8D2A847164A002382F83830252382F83930CA2382F83A30230C82F83B30230A82F83C3082F83D400DF106030D4C3832062140F20120A04706480A4B002198470A4BDB6801211878094B9847002003B030BD27
:F072B000842A2100B3A50800F53508004C2A210097A50800792D0800DC815000A3330800024BDB6801211878014B1847DC815000A333080010B5104B1048114C9847114BDB6800221878104B4FF4804198470F490F4803230022A04700220E490E480223A0470E4B0A4805219847BDE810400C4A0C490D480D4B1847F9A003009881500051640000DC81500071320800097250008C2A2100D17250004C2A21007B640000108150002081500035725000695F500070B5BC4BBC4CBD4D9847BD4BD3E9000120F07F40A047BB4B9847BB4BD3E9000120F07F40A047B94BD3E9000120F07F40A047B74BD3E9000120F07F40A047B54B29
:F073A000D3E9000120F07F40A047B34BD3E9000120F07F40A047B14BD3E9000120F07F40A047AF4BD3E9000120F07F40A047AD4BD3E9000120F07F40A047AB4BD3E9000120F07F40A047A94BD3E9000120F07F40A047A74BD3E9000120F07F40A047A54BD3E9000120F07F40A047A34BD3E9000120F07F40A047A14BD3E9000120F07F40A0479F4BD3E9000120F07F40A0479D4BD3E9000120F07F40A0479B4BD3E9000120F07F40A047994BD3E9000120F07F40A047974BD3E9000120F07F40A047954BD3E9000120F07F40A047934BD3E9000120F07F40A047914BD3E9000120F07F40A0478F4BD3E9000120F07F40A0478D4BA5
:F0749000D3E9000120F07F40A0478B4BD3E9000120F07F40A047894BD3E9000120F07F40A047874BD3E9000120F07F40A047854BD3E9000120F07F40A047834BD3E9000120F07F40A047814BD3E9000120F07F40A0477F4BD3E9000120F07F40A0477D4BD3E9000120F07F40A0477B4BD3E9000120F07F40A047794BD3E9000120F07F40A047774BD3E9000120F07F40A047754BD3E9000120F07F40A047734BD3E9000120F07F40A047714BD3E9000120F07F40A0476F4BD3E9000120F07F40A0476D4BD3E9000120F07F40A0476B4BD3E9000120F07F40A047694BD3E9000120F07F40A047674BD3E9000120F07F40A047654BD4
:F0758000D3E9000120F07F40A047634BD3E9000120F07F40A047614BD3E9000120F07F40A0475F4BD3E9000120F07F40A0475D4BD3E9000120F07F40A0475B4BD3E9000120F07F40A047594B9847594B9847594BD3E9000120F07F40A047574BD3E9000120F07F40A047554BD3E9000120F07F40A047534BD3E9000120F07F40A047514BD3E9000120F07F40A0474F4BD3E9000120F07F40A0474D4BD3E9000120F07F40A0474B4BD3E9000120F07F40A047494BD3E9000120F07F40A047474BD3E9000120F07F40A847454BD3E9000120F07F40A04785E0717E5000D1CF0000F9CF0000F40D2100797E5000FC0D2100040E2100A8
:F0767000140E21000C0E21001C0E2100340E2100240E21002C0E21003C0E2100440E21004C0E2100540E21005C0E2100640E2100740E21006C0E21007C0E2100840E2100940E21008C0E21009C0E2100A40E2100AC0E2100B40E2100BC0E2100E40E2100D40E2100EC0E2100C40E2100CC0E2100F40E2100DC0E2100FC0E2100040F2100140F21000C0F21001C0F21002C0F2100240F21003C0F2100340F2100440F21004C0F2100540F21005C0F21006C0F2100640F2100740F21007C0F21005D7F5000B17E5000B4102100BC102100C4102100CC102100DC102100D4102100EC102100E4102100F4102100FC1021000C1121003A
:F0776000BC4BD3E9000120F07F40A047BA4BD3E9000120F07F40A047B84BD3E9000120F07F40A047B64BD3E9000120F07F40A047B44BD3E9000120F07F40A047B24BD3E9000120F07F40A047B04BD3E9000120F07F40A047AE4BD3E9000120F07F40A047AC4BD3E9000120F07F40A047AA4BD3E9000120F07F40A047A84BD3E9000120F07F40A047A64BD3E9000120F07F40A047A44BD3E9000120F07F40A047A24BD3E9000120F07F40A047A04BD3E9000120F07F40A0479E4BD3E9000120F07F40A0479C4BD3E9000120F07F40A0479A4B98479A4BD3E9000120F07F40A047984BD3E9000120F07F40A047964BD3E9000120F00F
:F07850007F40A047944BD3E9000120F07F40A047924BD3E9000120F07F40A047904BD3E9000120F07F40A0478E4BD3E9000120F07F40A0478C4BD3E9000120F07F40A0478A4BD3E9000120F07F40A047884BD3E9000120F07F40A047864BD3E9000120F07F40A047844BD3E9000120F07F40A047824BD3E9000120F07F40A047804BD3E9000120F07F40A0477E4BD3E9000120F07F40A0477C4BD3E9000120F07F40A0477A4BD3E9000120F07F40A047784BD3E9000120F07F40A047764BD3E9000120F07F40A047744BD3E9000120F07F40A047724BD3E9000120F07F40A047704BD3E9000120F07F40A0476E4BD3E9000120F05C
:F07940007F40A0476C4B98476C4B98476C4BD3E9000120F07F40A0476A4BD3E9000120F07F40A047684BD3E9000120F07F40A847664B9847664BD3E9000120F07F40A047644BD3E9000120F07F40A047624BD3E9000120F07F40A047604BD3E9000120F07F40A0475E4B98475E4BD3E9000120F07F40A0475C4BD3E9000120F07F40A0475A4BD3E9000120F07F40A047584BD3E9000120F07F40A047564BD3E9000120F07F40A047544BD3E9000120F07F40A047524BD3E9000120F07F40A047504BD3E9000120F07F40A0474E4BD3E9000120F07F40A0474C4BD3E9000120F07F40A0474A4BD3E9000120F07F40A047484BD3E954
:F07A3000000120F07F40A047464BD3E9000120F07F40A047444BD3E9000120F07F40A04784E000BF141121001C11210004112100241121002C11210034112100441121003C1121004C112100541121005C112100641121006C11210084112100741121007C1121008C1121007D7F50009C11210094112100A4112100B4112100AC112100BC112100CC112100C4112100D4112100E4112100DC112100EC112100F4112100FC1121000C12210004122100141221001C122100241221002C122100341221003C12210044122100917F5000A57F50004C122100541221005C122100BD7F5000641221006C122100741221007C122100A8
:F07B2000D97F5000840F21008C0F2100940F21009C0F2100A40F2100AC0F2100B40F2100C40F2100BC0F2100CC0F2100DC0F2100D40F2100F40F2100E40F21005C4BD3E9000120F07F40A0475A4BD3E9000120F07F40A047584BD3E9000120F07F40A047564BD3E9000120F07F40A047544BD3E9000120F07F40A047524BD3E9000120F07F40A047504BD3E9000120F07F40A0474E4BD3E9000120F07F40A0474C4BD3E9000120F07F40A0474A4BD3E9000120F07F40A047484BD3E9000120F07F40A047464BD3E9000120F07F40A047444BD3E9000120F07F40A047424BD3E9000120F07F40A047404BD3E9000120F07F40A04761
:F07C10003E4BD3E9000120F07F40A0473C4BD3E9000120F07F40A0473A4BD3E9000120F07F40A047384BD3E9000120F07F40A047364BD3E9000120F07F40A047344BD3E9000120F07F40A047324BD3E9000120F07F40A047304BD3E9000120F07F40A0472E4BD3E9000120F07F40A0472C4B98472C4BD3E9000120F07F40A0472A4BD3E9000120F07F40A047284BD3E9000120F07F40A047264BD3E9000120F07F40A047244BD3E9000120F07F40A047224BD3E90001234620F07F40BDE87040184700BFEC0F2100FC0F2100041021000C102100141021001C10210024102100341021002C1021003C102100641021005C10210055
:F07D000054102100441021004C1021006C102100841021008C102100741021007C1021009C10210094102100A4102100AC102100F17F5000841221008C1221009C12210094122100A4122100AC122100704700002DE9F041244B254C254E264F984700253368AB4204F102041ED8234C234E244F00253368AB4204F10C041CD8214C224E1F4F00253368AB4204F110041BD81F4C1F4E1B4F00253368AB4204F10C041AD8BDE8F0411B4B184714F8011C14F8020CB8470135D4E754F80C3C54E902121878B8470135D5E754F8103C54E903121878B8470135D6E754F80C3C54E902121878B8470135D7E700BFDD340800F881500036
:F07DF000F481500071340800DC815000D881500071320800C8815000C4815000C4815000C0815000197E5000124B002210B51A7002225A7005229A70082413200C22DC701A7158710C4A0D4B04211170197054705C700D2494709C70D070D8701720107118711B20507158714FF4C003C3F89C1110BD00BFE5092100EB092100DF0921001B2068F52DBC000010B5192068F528FC094902200870FAF708FFFAF717F907491E200870FAF7CFFAF9F752FEFAF7DEFABDE81040F9F779BE3E1C20001C5C200010B5232068F50CFC194918481C4A0860194818490160194951601A4941621A490A8842F020020A80184940F8541C184926
:F07EE0000A6842F400420A601649C1641648602141F2100201601548817821F0380108318170134900200870124801689143016011494FF6FA70086010BD000055415000AC6720001D36500030812000F1375000286D2000393A5000B71B2000C53D5000C41B2000E51F5000800D20003E5D2000BC72200008292000A85D200010B5172068F5B6FBFCF7CDFEFCF754FEFCF758FEFCF75AFEBDE81040FCF75ABE10B51C2068F5A6FBFDF7D3FCBDE81040FDF7A3BD10B51A2068F59CFBFFF706F9BDE8104009F54DBD10B5112068F592FBBDE810400148FDF7AFBF0000695E500010B5122068F586FBF9F7F5FDFEF7E2FBFDF77DFF00
:F07FD000BDE81040FEF79EB910B50B2068F578FB02490148086010BDD5675000A8F7200010B51F2068F56CFB0B49012008600C490A4808600C490B4808600D490B4808600D490C4808600E490C4808600AF57CFCBDE8104009F5B8BDBCF72000B51B2100C8F72000240A2100E0F720006D1C2100C0F72000011C2100C4F72000971F210080FC200013B5072315498DF80730154B154C8B4202D0154A1846A047144A154B154800219847154B154A23F00F031360144B984710B9144B144A1A6001220DF107011348A047134B98471348134B9847134B9847134B144A1A6002B010BD00BF7C0621007C062100316D0000380C000004
:F080C0000A030000416D0000482A2100722D210064042000A5E60700E40B2000C0312000AE0B200061735000A3062100015B50004D7D50006062200081145000000000007847FDE704F01FE5000000000000000040000C00680106002004060020040000940621000000000003000000000812000000000812000000600030000500000812000500600030001E00000812001E00180028000000BC020700300030001E00000400043C0090012003300030001E00A000A0001E00000800080000000200010002050200000000000000000000000005048403000C00000000C0C62D0000000000000000000000000000000000000042
:F081B000000000000000000000000000000000000000000001000000F88150000B040000010000000000000002000000FA815000000200000000000000825000004600000100000007000000000004000A220B231B0020202521000000000000000000004521500000000000000000000000000025215000000000000C0802170D0101020909010106020918180301010909030305030000020200006726500002020011B326500002020011A72550001102001197425000030000060A5741524E494E47212120616E206163746976652074696D657220617420616464726573732030782578206973206265696E67207265696EF0
:F082A000697469616C697A65640A000000010000010100010101000000000000000100010001010001010101000100000000000101010001000001000100000100010101010001000000000001010100010201C40200003200700F00006008000008006400FF0000009700000054006400FFFFFFFF1C00000058006400FFFFFFFF8C00000048046000FFFFFFFF66000000E8064100FFFFFFFF00400000C4036000FFFFFFFF1B0000004C046000FFFFFFFF14000000B4014100FFFFFFFF0C91000044014100FFFFFFFF0A09000060006400FFFFFFFF0B0000006C066000FFFFFFFF0700000064066000FFFFFFFF800000008C02609F
:F083900000FFFFFFFF5400000018066000FFFFFFFFF000000048066000FFFFFFFF6600000068066000FF000000B000000084034100FFFFFFFFF7950000E4064100FFFFFFFFA8A500003C074100FFFFFFFF004C0000B8026000FF000000F000000080056000FF0000002600000004066000FF0000006600000054066000FF00000066000000CC044100FFFF0000365900009C016000FF0000000000000058066000FF00000083000000090104020102000107D602FF060A233C5A789105AC038403C0038403C5032E04E803E30306042E042E04E803E30306042E042E04E803E30306042E04470456048E046A04B5047E04560488BB
:F0848000046A04BF04043A043A043A043A043A043A22012C012C012201180122012C012C0122011801400122012C01220118017C01860186017C01720190019A019A019001860190019A019A0190018601043A043A043A043A043A043A030100006000059C02FFA002FFA402FFA802FFAC02FF0000600005C802FFCC02FFD002FFD402FFD802FF00006000054000FF4400FF5406FFDC01FFE401FF0000410002F401FFFF8C03FFFF0C0C0C0C0D0D0E0E0F10CD1D666C240E0E0E0E0E1414141616CE1E646C2410101011111616161718CF1E666C2412121212121819191B1CCF1F666C2414141414141B1C1C1E20CF21666C241550
:F0857000151515161D1E1E2021CF21666C24D000B76CD000776CD000776CD000776CDC00776CDC00776C0207F401FF0605E403E403E403E403E403FF03FF03FF03FF03FF0349044904490449044904880488048804880488040805080508050805080508050805080508050805043F043F043F043F043F043F030100006000059C023FA0023FA4023FA8023FAC023F00006000037C033F7803FF8005FF00006000035406FFDC01FFE401FF0000410003F801FF3FFC01FF3F8C0300000C0C0C0C0D1ECF24666C240E0E0E0E0E1ECF26666C2410101011111ECF26666C2412121212121ECF26666C24141414141421FF26666C24150E
:F08660001515151622FF26666C244501AF03F76C4501CF03F76C4501CF03F76C4501CF03F76C54013504F76C54013504F76C0907F401FF0605E403E403E403E403E403FF03FF03FF03FF03FF0349044904490449044904880488048804880488040805080508050805080508050805080508050805143F143F143F143F143F143F030100006000059C023FA0023FA4023FA8023FAC023F00006000038005FFC4033F0C00FF00006000035406FFDC01FFE401FF0000410003F801FF3FFC01FF3F8C03FFFF0C0C0C0C0D261CF566641C0E0E0E0E0E261BA566641C1010101111261CF566641C1212121212261EE566641C1414141470
:F08750001426200566641C1515151516261FE566641C45017003F76C4501B003F76C45019003F76C4501CF03F76C5401F003F76C54013504F76C0007048300000004079801FF327F00006500005000004000003700002E00002800002500001E0000191200171200140000121200121600121800121A00101A000F1A000D1A000C1A000A1A00070600070800070B00071D00071E00041400031900031B00031C00031F00021B00021D00021E00021F00010000010400010600010800010A00010C00010D00010F00011200011400011600011801011A00011C00011C00050724FF0106080B0007010302FF03FB04F705F306EF0777
:F08840000B0007010302FF03FB04F705F306EF0703072A0000000001000000140A00040000000000000A02FE0B38FFC80038FFC8000A02FE0BF1FF0F00F1FF0F0001021C0100000C0100000001000000010000000100000001000000010000000F03280278147F5A001402141E000203001EAA331905CF00800A92000000000100002200000000000000000301DC1A00042700B6F5800F03D3304600F0ACF97CBD68469CF5EEFF99F5E3BF9FF7BBFCD4F582FABAF51CBE204600F043FA1BF6F5BA000000F05CFA4FF0000933F680BD00F0B0FA002020709DF5C7B91CB000F099FDBDE8F081000029788DF812104FF00001B8F53F11
:F0893000B9000002D12068E7F5A0BF2846C9F5F9FE70BD06D10FB400F0BFFB04464FF000050FBCB0F534BF042C03D100F0BCFB284670BDABF53EFFB0F546BFBDE8104000F0BDBB91F54CFD08B1B6F545BD0026B6F549BD09884FEA51018A4201D3C1F5C8BDC1F5C8BD07B42046C1F5A7FD07BC70BD0000BDE8104000F088BC044688462DE9F00700F0A0FCBDE8F007002801D091F5A6BC20464146002591F56EBC0000F0B54FF44E11D1F8602122F00F02C1F86021042802D100F0A7FCF0BDABF501BF002507B402AA01A9684600F0D1FC07BC80460AB10FF6F2BB0FF6EABBBDE8104000F0DFBC2DE9F04706464748816809B1304E
:F08A20004688474FF001094FF44E17042E02D0012E07D043E0424940480860414981F800903EE04048DFF814814FF444140168404D21F0807101603D493C4808603E4900200870D8F80000012180001430B5F59CFC3B4908600146D7F8D80240F04000C7F8D802002055F8042B01EB8003401C1A600528F7D30020424605E054F8043B01EB8005401C6B6113689842F6D32D48018841F4006101802B4909200880042E17D1D7F82C01400705D50420C7F82C01264981F800909FF761FB25480068400301D500F0CFFAD7F85C0120F48040C7F85C010020BDE8F08710B51E481E490FF6BBFC1F491D48086000F0F0FB0EF632F81084
:F08B1000B91D491B4808609FF788FFAFF20B101A4908601B491A480968486000F0DAF91A491948C86010BD9CF72000ED062700046B2000911E2000DC0B2000CF102700EC0B2000040431006D1E2000D40B200064312000120F2000285C2000C0FC2000A00B200090312000300000005C05210064042000C0312000E40B20004C582000D90727006C71200020FA200068482000054910B5D1E9003401228240134344EAE274C1E9003410BD883120002DE9F04781461B4D002008602F680C46164698462FB14346324621464846B84720604046B8F1050F16DD062814D0082803D0B8F13F0F0FD106E0162E0CD168682060A8686063
:F08C00006007E0272E05D1E8682060286960606869A0602068002807D14346324621464846BDE8F0479DF580BEBDE8F0870000A8F720007CB51B4C0546E06A44F2036120EA0100E06268469CF53AFEDDE90021501941F10001400B40EAC1406269490B050622F47F4242EA154508236561A269000A40EA01606FF30F0280B21043A061E06A40F44240E062C4F87C3104202060E06A40F00100E062606B20F0300060637CBD00002C81330010B507480749084C0068084A10B10848006800E00748BAF5D4FB207010BD0000BCF7200044492000647120008C5D2000E0F72000E4F720002DE9F04100F1090600273D4680890BF64AE9
